{
  "abi": [
    {
      "inputs": [
        {
          "internalType": "address",
          "name": "_addressProvider",
          "type": "address"
        }
      ],
      "stateMutability": "nonpayable",
      "type": "constructor"
    },
    {
      "inputs": [],
      "name": "ADDRESSES_PROVIDER",
      "outputs": [
        {
          "internalType": "contract IPoolAddressesProvider",
          "name": "",
          "type": "address"
        }
      ],
      "stateMutability": "view",
      "type": "function"
    },
    {
      "inputs": [],
      "name": "POOL",
      "outputs": [
        {
          "internalType": "contract IPool",
          "name": "",
          "type": "address"
        }
      ],
      "stateMutability": "view",
      "type": "function"
    },
    {
      "inputs": [],
      "name": "Receive",
      "outputs": [],
      "stateMutability": "payable",
      "type": "function"
    },
    {
      "inputs": [
        {
          "internalType": "address",
          "name": "_tokenAddress",
          "type": "address"
        },
        {
          "internalType": "uint256",
          "name": "_tokenAmount",
          "type": "uint256"
        }
      ],
      "name": "RequestFlashLoan",
      "outputs": [],
      "stateMutability": "nonpayable",
      "type": "function"
    },
    {
      "inputs": [
        {
          "internalType": "address",
          "name": "asset",
          "type": "address"
        },
        {
          "internalType": "uint256",
          "name": "amount",
          "type": "uint256"
        },
        {
          "internalType": "uint256",
          "name": "premium",
          "type": "uint256"
        },
        {
          "internalType": "address",
          "name": "initiator",
          "type": "address"
        },
        {
          "internalType": "bytes",
          "name": "params",
          "type": "bytes"
        }
      ],
      "name": "executeOperation",
      "outputs": [
        {
          "internalType": "bool",
          "name": "",
          "type": "bool"
        }
      ],
      "stateMutability": "nonpayable",
      "type": "function"
    },
    {
      "inputs": [
        {
          "internalType": "address",
          "name": "tokenaddress",
          "type": "address"
        }
      ],
      "name": "getBalance",
      "outputs": [
        {
          "internalType": "uint256",
          "name": "",
          "type": "uint256"
        }
      ],
      "stateMutability": "view",
      "type": "function"
    },
    {
      "inputs": [
        {
          "internalType": "address",
          "name": "_tokenAddress",
          "type": "address"
        }
      ],
      "name": "widraw",
      "outputs": [],
      "stateMutability": "nonpayable",
      "type": "function"
    }
  ],
  "bytecode": {
    "object": "0x60c060405234801561001057600080fd5b506040516107ae3803806107ae83398101604081905261002f916100d1565b80806001600160a01b03166080816001600160a01b031681525050806001600160a01b031663026b1d5f6040518163ffffffff1660e01b8152600401602060405180830381865afa158015610088573d6000803e3d6000fd5b505050506040513d601f19601f820116820180604052508101906100ac91906100d1565b6001600160a01b031660a0525050600080546001600160a01b03191633179055610101565b6000602082840312156100e357600080fd5b81516001600160a01b03811681146100fa57600080fd5b9392505050565b60805160a05161067b61013360003960008181610108015281816101be01526103df015260006087015261067b6000f3fe6080604052600436106100705760003560e01c80638693ccc11161004e5780638693ccc11461012a5780639f1b3bad1461014a578063f8b2cb4f1461014c578063ff7cf4831461017a57600080fd5b80630542975c146100755780631b11d0ff146100c65780637535d246146100f6575b600080fd5b34801561008157600080fd5b506100a97f000000000000000000000000000000000000000000000000000000000000000081565b6040516001600160a01b0390911681526020015b60405180910390f35b3480156100d257600080fd5b506100e66100e1366004610473565b61019a565b60405190151581526020016100bd565b34801561010257600080fd5b506100a97f000000000000000000000000000000000000000000000000000000000000000081565b34801561013657600080fd5b5061014a610145366004610519565b61024f565b005b34801561015857600080fd5b5061016c610167366004610519565b610337565b6040519081526020016100bd565b34801561018657600080fd5b5061014a61019536600461053b565b6103a8565b6000806101a78688610565565b60405163095ea7b360e01b81526001600160a01b037f000000000000000000000000000000000000000000000000000000000000000081166004830152602482018390529192509089169063095ea7b3906044016020604051808303816000875af115801561021a573d6000803e3d6000fd5b505050506040513d601f19601f8201168201806040525081019061023e919061058b565b5060019150505b9695505050505050565b6040516370a0823160e01b815230600482015281906001600160a01b0382169063a9059cbb90339083906370a0823190602401602060405180830381865afa15801561029f573d6000803e3d6000fd5b505050506040513d601f19601f820116820180604052508101906102c391906105ad565b6040516001600160e01b031960e085901b1681526001600160a01b03909216600483015260248201526044016020604051808303816000875af115801561030e573d6000803e3d6000fd5b505050506040513d601f19601f82011682018060405250810190610332919061058b565b505050565b6040516370a0823160e01b81523060048201526000906001600160a01b038316906370a0823190602401602060405180830381865afa15801561037e573d6000803e3d6000fd5b505050506040513d601f19601f820116820180604052508101906103a291906105ad565b92915050565b60408051808201825260018152600160fd1b602082015290516310ac2ddf60e21b8152309184918491906000906001600160a01b037f000000000000000000000000000000000000000000000000000000000000000016906342b0b77c9061041c90889088908890889088906004016105c6565b600060405180830381600087803b15801561043657600080fd5b505af115801561044a573d6000803e3d6000fd5b5050505050505050505050565b80356001600160a01b038116811461046e57600080fd5b919050565b60008060008060008060a0878903121561048c57600080fd5b61049587610457565b955060208701359450604087013593506104b160608801610457565b9250608087013567ffffffffffffffff808211156104ce57600080fd5b818901915089601f8301126104e257600080fd5b8135818111156104f157600080fd5b8a602082850101111561050357600080fd5b6020830194508093505050509295509295509295565b60006020828403121561052b57600080fd5b61053482610457565b9392505050565b6000806040838503121561054e57600080fd5b61055783610457565b946020939093013593505050565b6000821982111561058657634e487b7160e01b600052601160045260246000fd5b500190565b60006020828403121561059d57600080fd5b8151801515811461053457600080fd5b6000602082840312156105bf57600080fd5b5051919050565b600060018060a01b03808816835260208188168185015286604085015260a06060850152855191508160a085015260005b828110156106135786810182015185820160c0015281016105f7565b8281111561062557600060c084870101525b5050601f01601f1916820160c0019050610245608083018461ffff16905256fea26469706673582212208dfdaf89a662ae02375025d10d3277fd938f9e1549c8f3d352e7bf829616c01764736f6c634300080a0033",
    "linkReferences": {}
  },
  "methodIdentifiers": {
    "ADDRESSES_PROVIDER()": "0542975c",
    "POOL()": "7535d246",
    "Receive()": "9f1b3bad",
    "RequestFlashLoan(address,uint256)": "ff7cf483",
    "executeOperation(address,uint256,uint256,address,bytes)": "1b11d0ff",
    "getBalance(address)": "f8b2cb4f",
    "widraw(address)": "8693ccc1"
  },
  "id": 21
}